{
  "contractName": "HelloWorld",
  "abi": [
    {
      "constant": true,
      "inputs": [],
      "name": "message",
      "outputs": [
        {
          "internalType": "string",
          "name": "",
          "type": "string"
        }
      ],
      "payable": false,
      "stateMutability": "view",
      "type": "function"
    },
    {
      "constant": true,
      "inputs": [
        {
          "internalType": "uint256",
          "name": "",
          "type": "uint256"
        }
      ],
      "name": "savedMessages",
      "outputs": [
        {
          "internalType": "address",
          "name": "messenger",
          "type": "address"
        },
        {
          "internalType": "string",
          "name": "message",
          "type": "string"
        }
      ],
      "payable": false,
      "stateMutability": "view",
      "type": "function"
    },
    {
      "constant": false,
      "inputs": [
        {
          "internalType": "string",
          "name": "newMessage",
          "type": "string"
        }
      ],
      "name": "setMessage",
      "outputs": [],
      "payable": false,
      "stateMutability": "nonpayable",
      "type": "function"
    },
    {
      "constant": true,
      "inputs": [],
      "name": "getMessage",
      "outputs": [
        {
          "components": [
            {
              "internalType": "address",
              "name": "messenger",
              "type": "address"
            },
            {
              "internalType": "string",
              "name": "message",
              "type": "string"
            }
          ],
          "internalType": "struct HelloWorld.MessageList[]",
          "name": "",
          "type": "tuple[]"
        }
      ],
      "payable": false,
      "stateMutability": "view",
      "type": "function"
    }
  ],
  "bytecode": "0x60806040526040518060400160405280600b81526020017f48656c6c6f20576f726c640000000000000000000000000000000000000000008152506000908051906020019061004f929190610062565b5034801561005c57600080fd5b50610107565b828054600181600116156101000203166002900490600052602060002090601f016020900481019282601f106100a357805160ff19168380011785556100d1565b828001600101855582156100d1579182015b828111156100d05782518255916020019190600101906100b5565b5b5090506100de91906100e2565b5090565b61010491905b808211156101005760008160009055506001016100e8565b5090565b90565b610a95806101166000396000f3fe608060405234801561001057600080fd5b506004361061004c5760003560e01c8063368b8772146100515780633dea27e71461006d578063ce6d41de1461009e578063e21f37ce146100bc575b600080fd5b61006b600480360361006691908101906106b9565b6100da565b005b610087600480360361008291908101906106fa565b61024d565b604051610095929190610879565b60405180910390f35b6100a6610336565b6040516100b391906108a9565b60405180910390f35b6100c461048d565b6040516100d191906108cb565b60405180910390f35b80600090805190602001906100f092919061052b565b50600160405180604001604052803373ffffffffffffffffffffffffffffffffffffffff16815260200160008054600181600116156101000203166002900480601f0160208091040260200160405190810160405280929190818152602001828054600181600116156101000203166002900480156101b05780601f10610185576101008083540402835291602001916101b0565b820191906000526020600020905b81548152906001019060200180831161019357829003601f168201915b50505050508152509080600181540180825580915050906001820390600052602060002090600202016000909192909190915060008201518160000160006101000a81548173ffffffffffffffffffffffffffffffffffffffff021916908373ffffffffffffffffffffffffffffffffffffffff16021790555060208201518160010190805190602001906102469291906105ab565b5050505050565b6001818154811061025a57fe5b90600052602060002090600202016000915090508060000160009054906101000a900473ffffffffffffffffffffffffffffffffffffffff1690806001018054600181600116156101000203166002900480601f01602080910402602001604051908101604052809291908181526020018280546001816001161561010002031660029004801561032c5780601f106103015761010080835404028352916020019161032c565b820191906000526020600020905b81548152906001019060200180831161030f57829003601f168201915b5050505050905082565b60606001805480602002602001604051908101604052809291908181526020016000905b8282101561048457838290600052602060002090600202016040518060400160405290816000820160009054906101000a900473ffffffffffffffffffffffffffffffffffffffff1673ffffffffffffffffffffffffffffffffffffffff1673ffffffffffffffffffffffffffffffffffffffff168152602001600182018054600181600116156101000203166002900480601f01602080910402602001604051908101604052809291908181526020018280546001816001161561010002031660029004801561046c5780601f106104415761010080835404028352916020019161046c565b820191906000526020600020905b81548152906001019060200180831161044f57829003601f168201915b5050505050815250508152602001906001019061035a565b50505050905090565b60008054600181600116156101000203166002900480601f0160208091040260200160405190810160405280929190818152602001828054600181600116156101000203166002900480156105235780601f106104f857610100808354040283529160200191610523565b820191906000526020600020905b81548152906001019060200180831161050657829003601f168201915b505050505081565b828054600181600116156101000203166002900490600052602060002090601f016020900481019282601f1061056c57805160ff191683800117855561059a565b8280016001018555821561059a579182015b8281111561059957825182559160200191906001019061057e565b5b5090506105a7919061062b565b5090565b828054600181600116156101000203166002900490600052602060002090601f016020900481019282601f106105ec57805160ff191683800117855561061a565b8280016001018555821561061a579182015b828111156106195782518255916020019190600101906105fe565b5b509050610627919061062b565b5090565b61064d91905b80821115610649576000816000905550600101610631565b5090565b90565b600082601f83011261066157600080fd5b813561067461066f8261091a565b6108ed565b9150808252602083016020830185838301111561069057600080fd5b61069b8382846109e8565b50505092915050565b6000813590506106b381610a3b565b92915050565b6000602082840312156106cb57600080fd5b600082013567ffffffffffffffff8111156106e557600080fd5b6106f184828501610650565b91505092915050565b60006020828403121561070c57600080fd5b600061071a848285016106a4565b91505092915050565b600061072f838361083c565b905092915050565b610740816109ac565b82525050565b61074f816109ac565b82525050565b600061076082610956565b61076a8185610979565b93508360208202850161077c85610946565b8060005b858110156107b857848403895281516107998582610723565b94506107a48361096c565b925060208a01995050600181019050610780565b50829750879550505050505092915050565b60006107d582610961565b6107df818561098a565b93506107ef8185602086016109f7565b6107f881610a2a565b840191505092915050565b600061080e82610961565b610818818561099b565b93506108288185602086016109f7565b61083181610a2a565b840191505092915050565b60006040830160008301516108546000860182610737565b506020830151848203602086015261086c82826107ca565b9150508091505092915050565b600060408201905061088e6000830185610746565b81810360208301526108a08184610803565b90509392505050565b600060208201905081810360008301526108c38184610755565b905092915050565b600060208201905081810360008301526108e58184610803565b905092915050565b6000604051905081810181811067ffffffffffffffff8211171561091057600080fd5b8060405250919050565b600067ffffffffffffffff82111561093157600080fd5b601f19601f8301169050602081019050919050565b6000819050602082019050919050565b600081519050919050565b600081519050919050565b6000602082019050919050565b600082825260208201905092915050565b600082825260208201905092915050565b600082825260208201905092915050565b60006109b7826109be565b9050919050565b600073ffffffffffffffffffffffffffffffffffffffff82169050919050565b6000819050919050565b82818337600083830152505050565b60005b83811015610a155780820151818401526020810190506109fa565b83811115610a24576000848401525b50505050565b6000601f19601f8301169050919050565b610a44816109de565b8114610a4f57600080fd5b5056fea365627a7a72315820429a4bb3dee0a53489412484b12ce4d8cec435aa70c49f17ce395d85a06db29b6c6578706572696d656e74616cf564736f6c63430005100040",
  "source": "pragma solidity >=0.5.16;\npragma experimental ABIEncoderV2;\n\ncontract HelloWorld {\n    string public message = \"Hello World\";\n    MessageList[] public savedMessages;\n\n    struct MessageList {\n\n        address messenger;\n        string message;\n    }\n\n    function setMessage(string memory newMessage) public {\n        message = newMessage;\n        savedMessages.push(MessageList( msg.sender, message));\n       \n    }\n\n    function getMessage() public view returns(MessageList[] memory) {\n        return savedMessages;\n    }\n}",
  "sourcePath": "C:/Users/K-Rex/Desktop/HelloWorld-main/src/contracts/HelloWorld.sol",
  "compiler": {
    "name": "solc",
    "version": "0.5.16+commit.9c3226ce.Emscripten.clang"
  },
  "schemaVersion": "3.2.5",
  "updatedAt": "2020-12-24T16:58:08.850Z",
  "networkType": "ethereum",
  "devdoc": {
    "methods": {}
  },
  "userdoc": {
    "methods": {}
  }
}